{
  "transactions": [
    {
      "hash": "0x38617b23e98feaea9456f2f05a259eb2015acf272b1d9ce4d2871dbd3ab4aa9e",
      "transactionType": "CALL",
      "contractName": "SwapTest",
      "contractAddress": "0x5b73c5498c1e3b4dba84de0f1833c4a029d90519",
      "function": "swapExactInputSingle((address,address,uint24,int24,address),uint128,uint128,bool)",
      "arguments": [
        "(0x0000000000000000000000000000000000000000, 0xA0b86991c6218b36c1d19D4a2e9Eb0cE3606eB48, 3000, 60, 0x0000000000000000000000000000000000000000)",
        "10000000000000000000",
        "0",
        "true"
      ],
      "transaction": {
        "from": "0xf39fd6e51aad88f6f4ce6ab8827279cfffb92266",
        "to": "0x5b73c5498c1e3b4dba84de0f1833c4a029d90519",
        "gas": "0x791e",
        "value": "0x0",
        "input": "0x749d3f6c0000000000000000000000000000000000000000000000000000000000000000000000000000000000000000a0b86991c6218b36c1d19d4a2e9eb0ce3606eb480000000000000000000000000000000000000000000000000000000000000bb8000000000000000000000000000000000000000000000000000000000000003c00000000000000000000000000000000000000000000000000000000000000000000000000000000000000000000000000000000000000008ac7230489e8000000000000000000000000000000000000000000000000000000000000000000000000000000000000000000000000000000000000000000000000000000000001",
        "nonce": "0x37b",
        "chainId": "0x1"
      },
      "additionalContracts": [],
      "isFixedGasLimit": false
    }
  ],
  "receipts": [
    {
      "status": "0x1",
      "cumulativeGasUsed": "0x57b0",
      "logs": [],
      "logsBloom": "0x00000000000000000000000000000000000000000000000000000000000000000000000000000000000000000000000000000000000000000000000000000000000000000000000000000000000000000000000000000000000000000000000000000000000000000000000000000000000000000000000000000000000000000000000000000000000000000000000000000000000000000000000000000000000000000000000000000000000000000000000000000000000000000000000000000000000000000000000000000000000000000000000000000000000000000000000000000000000000000000000000000000000000000000000000000000",
      "type": "0x2",
      "transactionHash": "0x38617b23e98feaea9456f2f05a259eb2015acf272b1d9ce4d2871dbd3ab4aa9e",
      "transactionIndex": "0x0",
      "blockHash": "0x092baf3d158ed52ecaa12ff17f4f30711b52d71e2d96c371c17507bc0e60b103",
      "blockNumber": "0x14d7939",
      "gasUsed": "0x57b0",
      "effectiveGasPrice": "0x5ab811a",
      "blobGasPrice": "0x1",
      "from": "0xf39fd6e51aad88f6f4ce6ab8827279cfffb92266",
      "to": "0x5b73c5498c1e3b4dba84de0f1833c4a029d90519",
      "contractAddress": null
    }
  ],
  "libraries": [],
  "pending": [],
  "returns": {},
  "timestamp": 1739656712,
  "chain": 1,
  "commit": "13b1d68"
}