{
  "transactions": [
    {
      "hash": "0xf4b3c4bd88593d4b97f7639954c8cfe26da945b337a008b0aac66257595605a6",
      "transactionType": "CALL",
      "contractName": "SwapTest",
      "contractAddress": "0x5b73c5498c1e3b4dba84de0f1833c4a029d90519",
      "function": "swapExactInputSingle(address,address,uint24,uint128,uint128,bool)",
      "arguments": [
        "0x0000000000000000000000000000000000000000",
        "0xA0b86991c6218b36c1d19D4a2e9Eb0cE3606eB48",
        "3000",
        "10000000000000000000",
        "0",
        "true"
      ],
      "transaction": {
        "from": "0xf39fd6e51aad88f6f4ce6ab8827279cfffb92266",
        "to": "0x5b73c5498c1e3b4dba84de0f1833c4a029d90519",
        "gas": "0x77ab",
        "value": "0x0",
        "input": "0x1bca2cbd0000000000000000000000000000000000000000000000000000000000000000000000000000000000000000a0b86991c6218b36c1d19d4a2e9eb0ce3606eb480000000000000000000000000000000000000000000000000000000000000bb80000000000000000000000000000000000000000000000008ac7230489e8000000000000000000000000000000000000000000000000000000000000000000000000000000000000000000000000000000000000000000000000000000000001",
        "nonce": "0x35c",
        "chainId": "0x1"
      },
      "additionalContracts": [],
      "isFixedGasLimit": false
    }
  ],
  "receipts": [
    {
      "status": "0x1",
      "cumulativeGasUsed": "0x56a4",
      "logs": [],
      "logsBloom": "0x00000000000000000000000000000000000000000000000000000000000000000000000000000000000000000000000000000000000000000000000000000000000000000000000000000000000000000000000000000000000000000000000000000000000000000000000000000000000000000000000000000000000000000000000000000000000000000000000000000000000000000000000000000000000000000000000000000000000000000000000000000000000000000000000000000000000000000000000000000000000000000000000000000000000000000000000000000000000000000000000000000000000000000000000000000000",
      "type": "0x2",
      "transactionHash": "0xf4b3c4bd88593d4b97f7639954c8cfe26da945b337a008b0aac66257595605a6",
      "transactionIndex": "0x0",
      "blockHash": "0x9192aabda74f299523e85c22c016072aa4dcec9afd8258ba427306b5ba5bff83",
      "blockNumber": "0x14d7b23",
      "gasUsed": "0x56a4",
      "effectiveGasPrice": "0x231a88f3",
      "blobGasPrice": "0x1",
      "from": "0xf39fd6e51aad88f6f4ce6ab8827279cfffb92266",
      "to": "0x5b73c5498c1e3b4dba84de0f1833c4a029d90519",
      "contractAddress": null
    }
  ],
  "libraries": [],
  "pending": [],
  "returns": {},
  "timestamp": 1739661551,
  "chain": 1,
  "commit": "13b1d68"
}