{
  "transactions": [
    {
      "hash": "0x8042696813e4fb848d4ee7985e1a7acff768d397be6ab54411d2e5a1be6e7ddb",
      "transactionType": "CALL",
      "contractName": "SwapTest",
      "contractAddress": "0x5b73c5498c1e3b4dba84de0f1833c4a029d90519",
      "function": "swapExactInputSingle(address,address,uint24,uint128,uint128,bool)",
      "arguments": [
        "0x0000000000000000000000000000000000000000",
        "0xA0b86991c6218b36c1d19D4a2e9Eb0cE3606eB48",
        "3000",
        "10000000000000000000",
        "0",
        "true"
      ],
      "transaction": {
        "from": "0xf39fd6e51aad88f6f4ce6ab8827279cfffb92266",
        "to": "0x5b73c5498c1e3b4dba84de0f1833c4a029d90519",
        "gas": "0x77ab",
        "value": "0x0",
        "input": "0x1bca2cbd0000000000000000000000000000000000000000000000000000000000000000000000000000000000000000a0b86991c6218b36c1d19d4a2e9eb0ce3606eb480000000000000000000000000000000000000000000000000000000000000bb80000000000000000000000000000000000000000000000008ac7230489e8000000000000000000000000000000000000000000000000000000000000000000000000000000000000000000000000000000000000000000000000000000000001",
        "nonce": "0x35d",
        "chainId": "0x1"
      },
      "additionalContracts": [],
      "isFixedGasLimit": false
    }
  ],
  "receipts": [
    {
      "status": "0x1",
      "cumulativeGasUsed": "0x56a4",
      "logs": [],
      "logsBloom": "0x00000000000000000000000000000000000000000000000000000000000000000000000000000000000000000000000000000000000000000000000000000000000000000000000000000000000000000000000000000000000000000000000000000000000000000000000000000000000000000000000000000000000000000000000000000000000000000000000000000000000000000000000000000000000000000000000000000000000000000000000000000000000000000000000000000000000000000000000000000000000000000000000000000000000000000000000000000000000000000000000000000000000000000000000000000000",
      "type": "0x2",
      "transactionHash": "0x8042696813e4fb848d4ee7985e1a7acff768d397be6ab54411d2e5a1be6e7ddb",
      "transactionIndex": "0x0",
      "blockHash": "0x5bba979d83c7d15584ed1b08e4652f8e2985913a21ea8ce5da9bd99acb6f21eb",
      "blockNumber": "0x14d7b24",
      "gasUsed": "0x56a4",
      "effectiveGasPrice": "0x1ee6ee82",
      "blobGasPrice": "0x1",
      "from": "0xf39fd6e51aad88f6f4ce6ab8827279cfffb92266",
      "to": "0x5b73c5498c1e3b4dba84de0f1833c4a029d90519",
      "contractAddress": null
    }
  ],
  "libraries": [],
  "pending": [],
  "returns": {},
  "timestamp": 1739661672,
  "chain": 1,
  "commit": "13b1d68"
}