{
  "transactions": [
    {
      "hash": "0x366edcb04269b7fdc7aed27e1b27b976cdf5216d37f4ddc2dc97ae9e32b2b59e",
      "transactionType": "CALL",
      "contractName": "SwapTest",
      "contractAddress": "0x5b73c5498c1e3b4dba84de0f1833c4a029d90519",
      "function": "swapExactInputSingle((address,address,uint24,int24,address),uint128,uint128,bool)",
      "arguments": [
        "(0x0000000000000000000000000000000000000000, 0xA0b86991c6218b36c1d19D4a2e9Eb0cE3606eB48, 3000, 60, 0x0000000000000000000000000000000000000000)",
        "10000000000000000000",
        "0",
        "true"
      ],
      "transaction": {
        "from": "0xf39fd6e51aad88f6f4ce6ab8827279cfffb92266",
        "to": "0x5b73c5498c1e3b4dba84de0f1833c4a029d90519",
        "gas": "0x791e",
        "value": "0x0",
        "input": "0x749d3f6c0000000000000000000000000000000000000000000000000000000000000000000000000000000000000000a0b86991c6218b36c1d19d4a2e9eb0ce3606eb480000000000000000000000000000000000000000000000000000000000000bb8000000000000000000000000000000000000000000000000000000000000003c00000000000000000000000000000000000000000000000000000000000000000000000000000000000000000000000000000000000000008ac7230489e8000000000000000000000000000000000000000000000000000000000000000000000000000000000000000000000000000000000000000000000000000000000001",
        "nonce": "0x374",
        "chainId": "0x1"
      },
      "additionalContracts": [],
      "isFixedGasLimit": false
    }
  ],
  "receipts": [
    {
      "status": "0x1",
      "cumulativeGasUsed": "0x57b0",
      "logs": [],
      "logsBloom": "0x00000000000000000000000000000000000000000000000000000000000000000000000000000000000000000000000000000000000000000000000000000000000000000000000000000000000000000000000000000000000000000000000000000000000000000000000000000000000000000000000000000000000000000000000000000000000000000000000000000000000000000000000000000000000000000000000000000000000000000000000000000000000000000000000000000000000000000000000000000000000000000000000000000000000000000000000000000000000000000000000000000000000000000000000000000000",
      "type": "0x2",
      "transactionHash": "0x366edcb04269b7fdc7aed27e1b27b976cdf5216d37f4ddc2dc97ae9e32b2b59e",
      "transactionIndex": "0x0",
      "blockHash": "0xe093b3b9d8a9c3e2b44e84a320a6d219330ec140d09b7f55c5f428b61802380a",
      "blockNumber": "0x14d7932",
      "gasUsed": "0x57b0",
      "effectiveGasPrice": "0xb949cb1",
      "blobGasPrice": "0x1",
      "from": "0xf39fd6e51aad88f6f4ce6ab8827279cfffb92266",
      "to": "0x5b73c5498c1e3b4dba84de0f1833c4a029d90519",
      "contractAddress": null
    }
  ],
  "libraries": [],
  "pending": [],
  "returns": {},
  "timestamp": 1739656007,
  "chain": 1,
  "commit": "13b1d68"
}